{
  "contractName": "EthernalBridge",
  "abi": [
    {
      "constant": true,
      "inputs": [],
      "name": "bigPrice",
      "outputs": [
        {
          "name": "",
          "type": "uint256"
        }
      ],
      "payable": false,
      "stateMutability": "view",
      "type": "function"
    },
    {
      "constant": true,
      "inputs": [],
      "name": "mediumPrice",
      "outputs": [
        {
          "name": "",
          "type": "uint256"
        }
      ],
      "payable": false,
      "stateMutability": "view",
      "type": "function"
    },
    {
      "constant": true,
      "inputs": [
        {
          "name": "",
          "type": "uint256"
        }
      ],
      "name": "grid",
      "outputs": [
        {
          "name": "",
          "type": "uint256"
        }
      ],
      "payable": false,
      "stateMutability": "view",
      "type": "function"
    },
    {
      "constant": true,
      "inputs": [],
      "name": "premiumMod",
      "outputs": [
        {
          "name": "",
          "type": "uint8"
        }
      ],
      "payable": false,
      "stateMutability": "view",
      "type": "function"
    },
    {
      "constant": true,
      "inputs": [],
      "name": "maxBridgeWidth",
      "outputs": [
        {
          "name": "",
          "type": "uint256"
        }
      ],
      "payable": false,
      "stateMutability": "view",
      "type": "function"
    },
    {
      "constant": true,
      "inputs": [],
      "name": "withdrawWallet",
      "outputs": [
        {
          "name": "",
          "type": "address"
        }
      ],
      "payable": false,
      "stateMutability": "view",
      "type": "function"
    },
    {
      "constant": true,
      "inputs": [],
      "name": "owner",
      "outputs": [
        {
          "name": "",
          "type": "address"
        }
      ],
      "payable": false,
      "stateMutability": "view",
      "type": "function"
    },
    {
      "constant": true,
      "inputs": [],
      "name": "mediumMod",
      "outputs": [
        {
          "name": "",
          "type": "uint8"
        }
      ],
      "payable": false,
      "stateMutability": "view",
      "type": "function"
    },
    {
      "constant": true,
      "inputs": [],
      "name": "maxBridgeHeight",
      "outputs": [
        {
          "name": "",
          "type": "uint256"
        }
      ],
      "payable": false,
      "stateMutability": "view",
      "type": "function"
    },
    {
      "constant": true,
      "inputs": [],
      "name": "smallPrice",
      "outputs": [
        {
          "name": "",
          "type": "uint256"
        }
      ],
      "payable": false,
      "stateMutability": "view",
      "type": "function"
    },
    {
      "constant": false,
      "inputs": [
        {
          "name": "newOwner",
          "type": "address"
        }
      ],
      "name": "transferOwnership",
      "outputs": [],
      "payable": false,
      "stateMutability": "nonpayable",
      "type": "function"
    },
    {
      "constant": true,
      "inputs": [
        {
          "name": "",
          "type": "uint256"
        }
      ],
      "name": "locks",
      "outputs": [
        {
          "name": "owner",
          "type": "address"
        },
        {
          "name": "x",
          "type": "uint32"
        },
        {
          "name": "y",
          "type": "uint16"
        },
        {
          "name": "sizeSkin",
          "type": "uint32"
        },
        {
          "name": "names",
          "type": "bytes16"
        },
        {
          "name": "message",
          "type": "bytes32"
        },
        {
          "name": "time",
          "type": "uint256"
        }
      ],
      "payable": false,
      "stateMutability": "view",
      "type": "function"
    },
    {
      "inputs": [],
      "payable": false,
      "stateMutability": "nonpayable",
      "type": "constructor"
    },
    {
      "payable": true,
      "stateMutability": "payable",
      "type": "fallback"
    },
    {
      "anonymous": false,
      "inputs": [
        {
          "indexed": true,
          "name": "id",
          "type": "uint256"
        },
        {
          "indexed": false,
          "name": "owner",
          "type": "address"
        },
        {
          "indexed": false,
          "name": "x",
          "type": "uint256"
        },
        {
          "indexed": false,
          "name": "y",
          "type": "uint256"
        },
        {
          "indexed": false,
          "name": "sizeSkin",
          "type": "uint256"
        },
        {
          "indexed": false,
          "name": "names",
          "type": "bytes16"
        },
        {
          "indexed": false,
          "name": "message",
          "type": "bytes32"
        }
      ],
      "name": "Buy",
      "type": "event"
    },
    {
      "anonymous": false,
      "inputs": [
        {
          "indexed": true,
          "name": "previousOwner",
          "type": "address"
        },
        {
          "indexed": true,
          "name": "newOwner",
          "type": "address"
        }
      ],
      "name": "OwnershipTransferred",
      "type": "event"
    },
    {
      "constant": false,
      "inputs": [
        {
          "name": "_address",
          "type": "address"
        }
      ],
      "name": "setWithdrawWallet",
      "outputs": [],
      "payable": false,
      "stateMutability": "nonpayable",
      "type": "function"
    },
    {
      "constant": false,
      "inputs": [
        {
          "name": "_price",
          "type": "uint256"
        }
      ],
      "name": "setSmallPrice",
      "outputs": [],
      "payable": false,
      "stateMutability": "nonpayable",
      "type": "function"
    },
    {
      "constant": false,
      "inputs": [
        {
          "name": "_price",
          "type": "uint256"
        }
      ],
      "name": "setMediumPrice",
      "outputs": [],
      "payable": false,
      "stateMutability": "nonpayable",
      "type": "function"
    },
    {
      "constant": false,
      "inputs": [
        {
          "name": "_price",
          "type": "uint256"
        }
      ],
      "name": "setBigPrice",
      "outputs": [],
      "payable": false,
      "stateMutability": "nonpayable",
      "type": "function"
    },
    {
      "constant": false,
      "inputs": [
        {
          "name": "_height",
          "type": "uint256"
        }
      ],
      "name": "setBridgeHeight",
      "outputs": [],
      "payable": false,
      "stateMutability": "nonpayable",
      "type": "function"
    },
    {
      "constant": false,
      "inputs": [
        {
          "name": "_width",
          "type": "uint256"
        }
      ],
      "name": "setBridgeWidth",
      "outputs": [],
      "payable": false,
      "stateMutability": "nonpayable",
      "type": "function"
    },
    {
      "constant": false,
      "inputs": [],
      "name": "withdraw",
      "outputs": [],
      "payable": false,
      "stateMutability": "nonpayable",
      "type": "function"
    },
    {
      "constant": true,
      "inputs": [],
      "name": "getLocksLength",
      "outputs": [
        {
          "name": "",
          "type": "uint256"
        }
      ],
      "payable": false,
      "stateMutability": "view",
      "type": "function"
    },
    {
      "constant": true,
      "inputs": [
        {
          "name": "id",
          "type": "uint256"
        }
      ],
      "name": "getLockById",
      "outputs": [
        {
          "name": "",
          "type": "uint256"
        },
        {
          "name": "",
          "type": "uint256"
        },
        {
          "name": "",
          "type": "uint256"
        },
        {
          "name": "",
          "type": "uint256"
        },
        {
          "name": "",
          "type": "bytes16"
        },
        {
          "name": "",
          "type": "bytes32"
        },
        {
          "name": "",
          "type": "address"
        }
      ],
      "payable": false,
      "stateMutability": "view",
      "type": "function"
    },
    {
      "constant": false,
      "inputs": [
        {
          "name": "_x",
          "type": "uint32"
        },
        {
          "name": "_y",
          "type": "uint16"
        },
        {
          "name": "_sizeSkin",
          "type": "uint32"
        },
        {
          "name": "_names",
          "type": "bytes16"
        },
        {
          "name": "_message",
          "type": "bytes32"
        }
      ],
      "name": "buy",
      "outputs": [
        {
          "name": "",
          "type": "uint256"
        }
      ],
      "payable": true,
      "stateMutability": "payable",
      "type": "function"
    },
    {
      "constant": true,
      "inputs": [
        {
          "name": "_size",
          "type": "uint256"
        },
        {
          "name": "_skin",
          "type": "uint256"
        }
      ],
      "name": "calculateCost",
      "outputs": [
        {
          "name": "cost",
          "type": "uint256"
        }
      ],
      "payable": false,
      "stateMutability": "view",
      "type": "function"
    },
    {
      "constant": false,
      "inputs": [
        {
          "name": "_x",
          "type": "uint256"
        },
        {
          "name": "_y",
          "type": "uint256"
        },
        {
          "name": "_size",
          "type": "uint256"
        }
      ],
      "name": "_checkGrid",
      "outputs": [],
      "payable": false,
      "stateMutability": "nonpayable",
      "type": "function"
    }
  ],
  "bytecode": "0x60606040526018600155610190600255660aa87bee5380006003556618de76816d80006004556631bced02db00006005556002600660006101000a81548160ff021916908360ff1602179055506003600660016101000a81548160ff021916908360ff160217905550341561007357600080fd5b600073ffffffffffffffffffffffffffffffffffffffff163373ffffffffffffffffffffffffffffffffffffffff16141515156100af57600080fd5b336000806101000a81548173ffffffffffffffffffffffffffffffffffffffff021916908373ffffffffffffffffffffffffffffffffffffffff160217905550600073ffffffffffffffffffffffffffffffffffffffff163373ffffffffffffffffffffffffffffffffffffffff161415151561012b57600080fd5b33600860006101000a81548173ffffffffffffffffffffffffffffffffffffffff021916908373ffffffffffffffffffffffffffffffffffffffff1602179055506114c18061017b6000396000f30060606040526004361061013e576000357c0100000000000000000000000000000000000000000000000000000000900463ffffffff16806308f124701461014057806323dc3f72146101fb57806329723ade146102305780633814b764146102535780633960c001146102765780633ccfd60b146102ed5780633eed382214610302578063489c18b01461032b578063509d6d721461035457806351d2cc8f1461037d57806360a10fa7146103b4578063671bd594146103d7578063758b31df146103fa5780637758bf861461042957806385d178f4146104525780638da5cb5b146104a75780639373f432146104fc57806393f8e9f714610535578063b1d27e3f14610564578063ce39469614610587578063e5033ee4146105c7578063ef8e8069146105f0578063f2fde38b14610619578063f4dadc6114610652575b005b341561014b57600080fd5b610161600480803590602001909190505061072d565b60405180888152602001878152602001868152602001858152602001846fffffffffffffffffffffffffffffffff19166fffffffffffffffffffffffffffffffff1916815260200183600019166000191681526020018273ffffffffffffffffffffffffffffffffffffffff1673ffffffffffffffffffffffffffffffffffffffff16815260200197505050505050505060405180910390f35b341561020657600080fd5b61022e60048080359060200190919080359060200190919080359060200190919050506108bc565b005b341561023b57600080fd5b6102516004808035906020019091905050610955565b005b341561025e57600080fd5b61027460048080359060200190919050506109ba565b005b6102d7600480803563ffffffff1690602001909190803561ffff1690602001909190803563ffffffff169060200190919080356fffffffffffffffffffffffffffffffff191690602001909190803560001916906020019091905050610a1f565b6040518082815260200191505060405180910390f35b34156102f857600080fd5b610300610cc8565b005b341561030d57600080fd5b610315610dfc565b6040518082815260200191505060405180910390f35b341561033657600080fd5b61033e610e02565b6040518082815260200191505060405180910390f35b341561035f57600080fd5b610367610e0f565b6040518082815260200191505060405180910390f35b341561038857600080fd5b61039e6004808035906020019091905050610e15565b6040518082815260200191505060405180910390f35b34156103bf57600080fd5b6103d56004808035906020019091905050610e2d565b005b34156103e257600080fd5b6103f86004808035906020019091905050610e92565b005b341561040557600080fd5b61040d610ef7565b604051808260ff1660ff16815260200191505060405180910390f35b341561043457600080fd5b61043c610f0a565b6040518082815260200191505060405180910390f35b341561045d57600080fd5b610465610f10565b604051808273ffffffffffffffffffffffffffffffffffffffff1673ffffffffffffffffffffffffffffffffffffffff16815260200191505060405180910390f35b34156104b257600080fd5b6104ba610f36565b604051808273ffffffffffffffffffffffffffffffffffffffff1673ffffffffffffffffffffffffffffffffffffffff16815260200191505060405180910390f35b341561050757600080fd5b610533600480803573ffffffffffffffffffffffffffffffffffffffff16906020019091905050610f5b565b005b341561054057600080fd5b610548610ffa565b604051808260ff1660ff16815260200191505060405180910390f35b341561056f57600080fd5b610585600480803590602001909190505061100d565b005b341561059257600080fd5b6105b16004808035906020019091908035906020019091905050611072565b6040518082815260200191505060405180910390f35b34156105d257600080fd5b6105da6110f5565b6040518082815260200191505060405180910390f35b34156105fb57600080fd5b6106036110fb565b6040518082815260200191505060405180910390f35b341561062457600080fd5b610650600480803573ffffffffffffffffffffffffffffffffffffffff16906020019091905050611101565b005b341561065d57600080fd5b6106736004808035906020019091905050611256565b604051808873ffffffffffffffffffffffffffffffffffffffff1673ffffffffffffffffffffffffffffffffffffffff1681526020018763ffffffff1663ffffffff1681526020018661ffff1661ffff1681526020018563ffffffff1663ffffffff168152602001846fffffffffffffffffffffffffffffffff19166fffffffffffffffffffffffffffffffff19168152602001836000191660001916815260200182815260200197505050505050505060405180910390f35b600080600080600080600060098881548110151561074757fe5b906000526020600020906004020160000160149054906101000a900463ffffffff1660098981548110151561077857fe5b906000526020600020906004020160000160189054906101000a900461ffff1660098a8154811015156107a757fe5b9060005260206000209060040201600001601a9054906101000a900463ffffffff1660098b8154811015156107d857fe5b90600052602060002090600402016003015460098c8154811015156107f957fe5b906000526020600020906004020160010160009054906101000a90047001000000000000000000000000000000000260098d81548110151561083757fe5b90600052602060002090600402016002015460098e81548110151561085857fe5b906000526020600020906004020160000160009054906101000a900473ffffffffffffffffffffffffffffffffffffffff168663ffffffff1696508561ffff1695508463ffffffff1694509650965096509650965096509650919395979092949650565b60008060008092505b8383101561094d57600760008488018152602001908152602001600020549150600090505b8381101561092657600180828701849060020a900416141561090b57600080fd5b80850160019060020a028217915080806001019150506108ea565b816007600085890181526020019081526020016000208190555082806001019350506108c5565b505050505050565b6000809054906101000a900473ffffffffffffffffffffffffffffffffffffffff1673ffffffffffffffffffffffffffffffffffffffff163373ffffffffffffffffffffffffffffffffffffffff161415156109b057600080fd5b8060048190555050565b6000809054906101000a900473ffffffffffffffffffffffffffffffffffffffff1673ffffffffffffffffffffffffffffffffffffffff163373ffffffffffffffffffffffffffffffffffffffff16141515610a1557600080fd5b8060028190555050565b600080610a3d8763ffffffff168761ffff168763ffffffff16611312565b600160098054806001018281610a5391906113a7565b9160005260206000209060040201600060e0604051908101604052803373ffffffffffffffffffffffffffffffffffffffff1681526020018c63ffffffff1681526020018b61ffff1681526020018a63ffffffff168152602001896fffffffffffffffffffffffffffffffff191681526020018860001916815260200142815250909190915060008201518160000160006101000a81548173ffffffffffffffffffffffffffffffffffffffff021916908373ffffffffffffffffffffffffffffffffffffffff16021790555060208201518160000160146101000a81548163ffffffff021916908363ffffffff16021790555060408201518160000160186101000a81548161ffff021916908361ffff160217905550606082015181600001601a6101000a81548163ffffffff021916908363ffffffff16021790555060808201518160010160006101000a8154816fffffffffffffffffffffffffffffffff02191690837001000000000000000000000000000000009004021790555060a0820151816002019060001916905560c082015181600301555050039050807f73c24cb10925b949b3d9feb599ba1a25d9738946319b63e63b560fea4f531b8c338989898989604051808773ffffffffffffffffffffffffffffffffffffffff1673ffffffffffffffffffffffffffffffffffffffff1681526020018663ffffffff1681526020018561ffff1681526020018463ffffffff168152602001836fffffffffffffffffffffffffffffffff19166fffffffffffffffffffffffffffffffff191681526020018260001916600019168152602001965050505050505060405180910390a28091505095945050505050565b6000809054906101000a900473ffffffffffffffffffffffffffffffffffffffff1673ffffffffffffffffffffffffffffffffffffffff163373ffffffffffffffffffffffffffffffffffffffff16141515610d2357600080fd5b600073ffffffffffffffffffffffffffffffffffffffff16600860009054906101000a900473ffffffffffffffffffffffffffffffffffffffff1673ffffffffffffffffffffffffffffffffffffffff1614151515610d8157600080fd5b600860009054906101000a900473ffffffffffffffffffffffffffffffffffffffff1673ffffffffffffffffffffffffffffffffffffffff166108fc3073ffffffffffffffffffffffffffffffffffffffff16319081150290604051600060405180830381858888f193505050501515610dfa57600080fd5b565b60055481565b6000600980549050905090565b60045481565b60076020528060005260406000206000915090505481565b6000809054906101000a900473ffffffffffffffffffffffffffffffffffffffff1673ffffffffffffffffffffffffffffffffffffffff163373ffffffffffffffffffffffffffffffffffffffff16141515610e8857600080fd5b8060018190555050565b6000809054906101000a900473ffffffffffffffffffffffffffffffffffffffff1673ffffffffffffffffffffffffffffffffffffffff163373ffffffffffffffffffffffffffffffffffffffff16141515610eed57600080fd5b8060058190555050565b600660019054906101000a900460ff1681565b60025481565b600860009054906101000a900473ffffffffffffffffffffffffffffffffffffffff1681565b6000809054906101000a900473ffffffffffffffffffffffffffffffffffffffff1681565b6000809054906101000a900473ffffffffffffffffffffffffffffffffffffffff1673ffffffffffffffffffffffffffffffffffffffff163373ffffffffffffffffffffffffffffffffffffffff16141515610fb657600080fd5b80600860006101000a81548173ffffffffffffffffffffffffffffffffffffffff021916908373ffffffffffffffffffffffffffffffffffffffff16021790555050565b600660009054906101000a900460ff1681565b6000809054906101000a900473ffffffffffffffffffffffffffffffffffffffff1673ffffffffffffffffffffffffffffffffffffffff163373ffffffffffffffffffffffffffffffffffffffff1614151561106857600080fd5b8060038190555050565b600060028314156110875760045490506110a1565b600383141561109a5760055490506110a0565b60035490505b5b6107d1821015156110c857600660019054906101000a900460ff1660ff16810290506110ec565b6103e9821015156110eb57600660009054906101000a900460ff1660ff16810290505b5b80905092915050565b60015481565b60035481565b6000809054906101000a900473ffffffffffffffffffffffffffffffffffffffff1673ffffffffffffffffffffffffffffffffffffffff163373ffffffffffffffffffffffffffffffffffffffff1614151561115c57600080fd5b600073ffffffffffffffffffffffffffffffffffffffff168173ffffffffffffffffffffffffffffffffffffffff161415151561119857600080fd5b8073ffffffffffffffffffffffffffffffffffffffff166000809054906101000a900473ffffffffffffffffffffffffffffffffffffffff1673ffffffffffffffffffffffffffffffffffffffff167f8be0079c531659141344cd1fd0a4f28419497f9722a3daafe3b4186f6b6457e060405160405180910390a3806000806101000a81548173ffffffffffffffffffffffffffffffffffffffff021916908373ffffffffffffffffffffffffffffffffffffffff16021790555050565b60098181548110151561126557fe5b90600052602060002090600402016000915090508060000160009054906101000a900473ffffffffffffffffffffffffffffffffffffffff16908060000160149054906101000a900463ffffffff16908060000160189054906101000a900461ffff169080600001601a9054906101000a900463ffffffff16908060010160009054906101000a900470010000000000000000000000000000000002908060020154908060030154905087565b600080600a8381151561132157fe5b069150600a82840381151561133257fe5b04905060018214806113445750600282145b8061134f5750600382145b151561135a57600080fd5b81840160015410158015611372575081850160025410155b151561137d57600080fd5b6113878282611072565b341015151561139557600080fd5b6113a08585846108bc565b5050505050565b8154818355818115116113d4576004028160040283600052602060002091820191016113d391906113d9565b5b505050565b61149291905b8082111561148e57600080820160006101000a81549073ffffffffffffffffffffffffffffffffffffffff02191690556000820160146101000a81549063ffffffff02191690556000820160186101000a81549061ffff021916905560008201601a6101000a81549063ffffffff02191690556001820160006101000a8154906fffffffffffffffffffffffffffffffff021916905560028201600090556003820160009055506004016113df565b5090565b905600a165627a7a723058207b5de8cf530bc5e17df51f1c181232959cb5b1fc64646cd583c83d985007e31a0029",
  "source": "pragma solidity 0.4.19;\n\nimport \"./Ownable.sol\";\n\n\ncontract EthernalBridge is Ownable {\n\n\t/// Buy is emitted when a lock is bought\n\tevent Buy(\n\t\tuint indexed id,\n\t\taddress owner,\n\t\tuint x,\n\t\tuint y,\n\t\tuint sizeSkin,\n\t\tbytes16 names,\n\t\tbytes32 message\n\t);\n\n\t/// We reserve 1 thousand skins per type until premium\n\n\t// 0-1000 CHEAP_TYPE\n\tuint constant MEDIUM_TYPE = 1001;\n\tuint constant PREMIUM_TYPE = 2001;\n\n\t/// Bridge max width & height: This can be increased later to make the bridge bigger\n\tuint public maxBridgeHeight = 24; // 240px\n\tuint public maxBridgeWidth = 400; // 4000px\n\n\t/// Price by size\n\tuint public smallPrice = 3 finney;\n\tuint public mediumPrice = 7 finney;\n\tuint public bigPrice = 14 finney;\n\n\t/// Price modifiers\n\tuint8 public mediumMod = 2;\n\tuint8 public premiumMod = 3;\n\n\t/// Locks position\n\tmapping (uint => uint) public grid;\n\n\n\t/// withdrawWallet is the fixed destination of funds to withdraw. It might\n\t/// differ from owner address to allow for a cold storage address.\n\taddress public withdrawWallet;\n\n\tstruct Lock {\n\t\taddress owner;\n\n\t\tuint32 x;\n\t\tuint16 y;\n\n\t\t// last digit is lock size\n\t\tuint32 sizeSkin;\n\n\t\tbytes16 names;\n\t\tbytes32 message;\n\t\tuint time;\n\n\t}\n\n\t/// All bought locks\n\tLock[] public locks;\n\n\tfunction () public payable { }\n\n\tfunction EthernalBridge() public {\n\t\trequire(msg.sender != address(0));\n\n\t\twithdrawWallet = msg.sender;\n\t}\n\n\t/// @dev Set address withdaw wallet\n\t/// @param _address The address where the balance will be withdrawn\n\tfunction setWithdrawWallet(address _address) external onlyOwner {\n\t\twithdrawWallet = _address;\n\t}\n\n\t/// @dev Set small lock price\n\t/// This is used if ether value increase a lot\n\t/// @param _price The new small lock price\n\tfunction setSmallPrice(uint _price) external onlyOwner {\n\t\tsmallPrice = _price;\n\t}\n\n\t/// @dev Set medium lock price\n\t/// This is used if ether value increase a lot\n\t/// @param _price The new medium lock price\n\tfunction setMediumPrice(uint _price) external onlyOwner {\n\t\tmediumPrice = _price;\n\t}\n\n\t/// @dev Set big lock price\n\t/// This is used if ether value increase a lot\n\t/// @param _price The new big lock price\n\tfunction setBigPrice(uint _price) external onlyOwner {\n\t\tbigPrice = _price;\n\t}\n\n\t/// @dev Set new bridge height\n\t/// @param _height The bridge height\n\tfunction setBridgeHeight(uint _height) external onlyOwner {\n\t\tmaxBridgeHeight = _height;\n\t}\n\n\t/// @dev Set new bridge width\n\t/// @param _width The bridge width\n\tfunction setBridgeWidth(uint _width) external onlyOwner {\n\t\tmaxBridgeWidth = _width;\n\t}\n\n\t/// Withdraw out the balance of the contract to the given withdraw wallet.\n\tfunction withdraw() external onlyOwner {\n\t\trequire(withdrawWallet != address(0));\n\n\t\twithdrawWallet.transfer(this.balance);\n\t}\n\n\t/// @notice The the total number of locks\n\tfunction getLocksLength() external view returns (uint) {\n\t\treturn locks.length;\n\t}\n\n\t/// @notice Get a lock by its id\n\t/// @param id The lock id\n\tfunction getLockById(uint id) external view returns (uint, uint, uint, uint, bytes16, bytes32, address) {\n\t\treturn (\n\t\t\tlocks[id].x,\n\t\t\tlocks[id].y,\n\t\t\tlocks[id].sizeSkin,\n\t\t\tlocks[id].time,\n\t\t\tlocks[id].names,\n\t\t\tlocks[id].message,\n\t\t\tlocks[id].owner\n\t\t);\n\t}\n\n\n\t/// @notice Locks must be purchased in 20x20 pixel blocks.\n\t/// Each coordinate represents 20 pixels. So _x=15, _y=10, _width=1, _height=1\n\t/// Represents a 20x20 pixel lock at 300x, 200y\n\tfunction buy(\n\t\tuint32 _x,\n\t\tuint16 _y,\n\t\tuint32 _sizeSkin,\n\t\tbytes16 _names,\n\t\tbytes32 _message\n\t)\n\t\texternal\n\t\tpayable\n\t\treturns (uint)\n\t{\n\n\t\t_checks(_x, _y, _sizeSkin);\n\n\t\tuint id = locks.push(\n\t\t\tLock(msg.sender, _x, _y, _sizeSkin, _names, _message, block.timestamp)\n\t\t) - 1;\n\n\t\t// Trigger buy event\n\t\tBuy(id, msg.sender, _x, _y, _sizeSkin, _names, _message);\n\n\t\treturn id;\n\t}\n\n\n\tfunction _checks(uint _x, uint _y, uint _sizeSkin) private {\n\n\t\tuint _size = _sizeSkin % 10; // Size & skin are packed together. Last digit is the size. (1, 2, 3)\n\t\tuint _skin = (_sizeSkin - _size) / 10;\n\n\t\t/// Size must be 20 / 40 / 60 pixels\n\t\trequire(_size == 1 || _size == 2 || _size == 3);\n\n\t\trequire(maxBridgeHeight >= (_y + _size) && maxBridgeWidth >= (_x + _size));\n\n\t\trequire(msg.value >= calculateCost(_size, _skin));\n\n\t\t// Check if lock position is available\n\t\t_checkGrid(_x, _y, _size);\n\t}\n\n\t/// @dev calculate the cost of the lock by its size and skin\n\t/// @param _size The lock size\n\t/// @param _skin The lock skin\n\tfunction calculateCost(uint _size, uint _skin) public view returns (uint cost) {\n\t\t// Calculate cost by size\n\n\t\tif(_size == 2)\n\t\t\tcost = mediumPrice;\n\t\telse if(_size == 3)\n\t\t\tcost = bigPrice;\n\t\telse\n\t\t\tcost = smallPrice;\n\n\t\t// Apply price modifiers\n\t\tif(_skin >= PREMIUM_TYPE)\n\t\t\tcost = cost * premiumMod;\n\t\telse if(_skin >= MEDIUM_TYPE)\n\t\t\tcost = cost * mediumMod;\n\n\t\treturn cost;\n\t}\n\n\n\t/// @dev check if a lock can be set in the given positions\n\t/// @param _x The x coord\n\t/// @param _y The y coord\n\t/// @param _size The lock size\n\tfunction _checkGrid(uint _x, uint _y, uint _size) public {\n\n\t\tfor(uint i = 0; i < _size; i++) {\n\n\t\t\tuint row = grid[_x + i];\n\n\t\t\tfor(uint j = 0; j < _size; j++) {\n\n\t\t\t\t// if (_y + j) bit is set in row\n\t\t\t\tif((row >> (_y + j)) & uint(1) == uint(1)) {\n\t\t\t\t\t// image exists in this slot\n\t\t\t\t\trevert();\n\t\t\t\t}\n\n\t\t\t\t// set bit (_y + j)\n\t\t\t\trow = row | (uint(1) << (_y + j));\n\t\t\t}\n\n\t\t\tgrid[_x + i] = row;\n\t\t}\n\t}\n\n}",
  "sourcePath": "/var/www/ethernal-bridge/contracts/EthernalBridge.sol",
  "compiler": {
    "name": "solc",
    "version": "0.4.19+commit.c4cbbb05.Emscripten.clang"
  },
  "schemaVersion": "1.0.1",
  "updatedAt": "2018-02-12T18:57:07.144Z"
}